{
  "contractName": "ProofOfExistence1",
  "abi": [
    {
      "constant": true,
      "inputs": [],
      "name": "proof",
      "outputs": [
        {
          "name": "",
          "type": "bytes32"
        }
      ],
      "payable": false,
      "stateMutability": "view",
      "type": "function"
    },
    {
      "constant": false,
      "inputs": [
        {
          "name": "document",
          "type": "string"
        }
      ],
      "name": "notarize",
      "outputs": [],
      "payable": false,
      "stateMutability": "nonpayable",
      "type": "function"
    },
    {
      "constant": true,
      "inputs": [
        {
          "name": "document",
          "type": "string"
        }
      ],
      "name": "proofFor",
      "outputs": [
        {
          "name": "",
          "type": "bytes32"
        }
      ],
      "payable": false,
      "stateMutability": "view",
      "type": "function"
    }
  ],
  "bytecode": "0x608060405234801561001057600080fd5b50610270806100206000396000f300608060405260043610610057576000357c0100000000000000000000000000000000000000000000000000000000900463ffffffff1680637183616c1461005c578063f6c1acdf146100c5578063faf924cf1461014a575b600080fd5b34801561006857600080fd5b506100c3600480360381019080803590602001908201803590602001908080601f016020809104026020016040519081016040528093929190818152602001838380828437820191505050505050919291929050505061017d565b005b3480156100d157600080fd5b5061012c600480360381019080803590602001908201803590602001908080601f0160208091040260200160405190810160405280939291908181526020018383808284378201915050505050509192919290505050610193565b60405180826000191660001916815260200191505060405180910390f35b34801561015657600080fd5b5061015f61023e565b60405180826000191660001916815260200191505060405180910390f35b61018681610193565b6000816000191690555050565b60006002826040518082805190602001908083835b6020831015156101cd57805182526020820191506020810190506020830392506101a8565b6001836020036101000a0380198251168184511680821785525050505050509050019150506020604051808303816000865af1158015610211573d6000803e3d6000fd5b5050506040513d602081101561022657600080fd5b81019080805190602001909291905050509050919050565b600054815600a165627a7a723058208f38eaec7b57bb2c6fcc9c605e08397a839988fce2fd2fe8b34299d0bd2891fc0029",
  "source": "// SPDX-License-Identifier: MIT\npragma solidity >= 0.4.22 < 0.9.0; // had to add the config pragma version in truffle-config file.\n\n// Proof of Existence contract, version 1\ncontract ProofOfExistence1 {\n  // state\n  bytes32 public proof;\n\n  // calculate and store the proof for a document\n  // *transactional function*\n  function notarize(string document) {\n    proof = proofFor(document);\n  }\n\n  // helper function to get a document's sha256\n  // *read-only function*\n  function proofFor(string document) constant returns (bytes32) {\n    return sha256(document);\n  }\n}",
  "sourcePath": "C:\\Users\\orion\\Documents\\Truffle Proof of Existence\\contracts\\ProofOfExistence1.sol",
  "compiler": {
    "name": "solc",
    "version": "0.4.22+commit.4cb486ee.Emscripten.clang"
  },
  "schemaVersion": "3.2.0-tezos.1",
  "updatedAt": "2021-12-08T17:13:41.507Z",
  "devdoc": {
    "methods": {}
  },
  "userdoc": {
    "methods": {}
  }
}