{
  "contractName": "ProofOfExistence2",
  "abi": [
    {
      "constant": false,
      "inputs": [
        {
          "name": "proof",
          "type": "bytes32"
        }
      ],
      "name": "storeProof",
      "outputs": [],
      "payable": false,
      "stateMutability": "nonpayable",
      "type": "function"
    },
    {
      "constant": false,
      "inputs": [
        {
          "name": "document",
          "type": "string"
        }
      ],
      "name": "notarize",
      "outputs": [],
      "payable": false,
      "stateMutability": "nonpayable",
      "type": "function"
    },
    {
      "constant": true,
      "inputs": [
        {
          "name": "document",
          "type": "string"
        }
      ],
      "name": "proofFor",
      "outputs": [
        {
          "name": "",
          "type": "bytes32"
        }
      ],
      "payable": false,
      "stateMutability": "view",
      "type": "function"
    },
    {
      "constant": true,
      "inputs": [
        {
          "name": "document",
          "type": "string"
        }
      ],
      "name": "checkDocument",
      "outputs": [
        {
          "name": "",
          "type": "bool"
        }
      ],
      "payable": false,
      "stateMutability": "view",
      "type": "function"
    },
    {
      "constant": true,
      "inputs": [
        {
          "name": "proof",
          "type": "bytes32"
        }
      ],
      "name": "hasProof",
      "outputs": [
        {
          "name": "",
          "type": "bool"
        }
      ],
      "payable": false,
      "stateMutability": "view",
      "type": "function"
    }
  ],
  "bytecode": "0x608060405234801561001057600080fd5b506103ff806100206000396000f30060806040526004361061006d576000357c0100000000000000000000000000000000000000000000000000000000900463ffffffff16806353fb9233146100725780637183616c146100f35780638952877b1461015c578063e3d1e6d61461018d578063f6c1acdf146101d6575b600080fd5b34801561007e57600080fd5b506100d9600480360381019080803590602001908201803590602001908080601f016020809104026020016040519081016040528093929190818152602001838380828437820191505050505050919291929050505061025b565b604051808215151515815260200191505060405180910390f35b3480156100ff57600080fd5b5061015a600480360381019080803590602001908201803590602001908080601f016020809104026020016040519081016040528093929190818152602001838380828437820191505050505050919291929050505061027a565b005b34801561016857600080fd5b5061018b6004803603810190808035600019169060200190929190505050610294565b005b34801561019957600080fd5b506101bc60048036038101908080356000191690602001909291905050506102c9565b604051808215151515815260200191505060405180910390f35b3480156101e257600080fd5b5061023d600480360381019080803590602001908201803590602001908080601f0160208091040260200160405190810160405280939291908181526020018383808284378201915050505050509192919290505050610328565b60405180826000191660001916815260200191505060405180910390f35b60008061026783610328565b9050610272816102c9565b915050919050565b600061028582610328565b905061029081610294565b5050565b600081908060018154018082558091505090600182039060005260206000200160009091929091909150906000191690555050565b600080600090505b60008054905081101561031d5782600019166000828154811015156102f257fe5b90600052602060002001546000191614156103105760019150610322565b80806001019150506102d1565b600091505b50919050565b60006002826040518082805190602001908083835b602083101515610362578051825260208201915060208101905060208303925061033d565b6001836020036101000a0380198251168184511680821785525050505050509050019150506020604051808303816000865af11580156103a6573d6000803e3d6000fd5b5050506040513d60208110156103bb57600080fd5b810190808051906020019092919050505090509190505600a165627a7a723058204ba26a7a667c0c30cc984050c4475fabb29c134f263de35695557eae88ac83aa0029",
  "source": "// SPDX-License-Identifier: MIT\npragma solidity >= 0.4.22 < 0.9.0; // had to add the config pragma version in truffle-config file.\n\n// Proof of Existence contract, version 2\ncontract ProofOfExistence2 {\n  // state\n  bytes32[] private proofs;\n  // store a proof of existence in the contract state\n  // *transactional function*\n  function storeProof(bytes32 proof) {\n    proofs.push(proof);\n  }\n// calculate and store the proof for a document\n  // *transactional function*\n  function notarize(string document) {\n    bytes32 proof = proofFor(document);\n    storeProof(proof);\n  }\n// helper function to get a document's sha256\n  // *read-only function*\n  function proofFor(string document) constant returns (bytes32) {\n    return sha256(document);\n  }\n// check if a document has been notarized\n  // *read-only function*\n  function checkDocument(string document) constant returns (bool) {\n    bytes32 proof = proofFor(document);\n    return hasProof(proof);\n  }\n  // returns true if proof is stored\n  // *read-only function*\n  function hasProof(bytes32 proof) constant returns (bool) {\n    for (uint256 i = 0; i < proofs.length; i++) {\n      if (proofs[i] == proof) {\n        return true;\n      }\n    }\n    return false;\n  }\n}",
  "sourcePath": "C:\\Users\\orion\\Documents\\Truffle Proof of Existence\\contracts\\ProofOfExistence2.sol",
  "compiler": {
    "name": "solc",
    "version": "0.4.22+commit.4cb486ee.Emscripten.clang"
  },
  "schemaVersion": "3.2.0-tezos.1",
  "updatedAt": "2021-12-08T17:13:41.511Z",
  "devdoc": {
    "methods": {}
  },
  "userdoc": {
    "methods": {}
  }
}